:020000040000FA
:040000001DEF08F0F8
:08000800056ED8CF06F0E0CF31
:1000100007F00001E9CF0DF0EACF08F0E1CF09F0D9
:10002000E2CF0AF0D9CF0BF0DACF0CF0F3CF14F017
:10003000F4CF15F0FACF16F000C00FF001C010F0A9
:1000400002C011F003C012F004C013F0F2A82CEFAC
:1000500000F0F2B263EF06F0A0AA32EF00F0A1BA0E
:100060002EEF06F00FC000F010C001F011C002F03A
:1000700012C003F013C004F00E8E0DC0E9FF08C0DB
:10008000EAFF09C0E1FF0AC0E2FF0BC0D9FF0CC0C4
:10009000DAFF14C0F3FF15C0F4FF16C0FAFF0550D5
:1000A00007C0E0FF06C0D8FF1000F76ABA0FF66E6F
:1000B000000EF7220900F5501200040300000000B2
:1000C000000000000000000000000DAE03D0F2CFE1
:1000D0000EF0F29EF76AEC0FF66E000EF7220900A2
:1000E000F5500DAE02D00EBEF28E12004000080098
:1000F0000000000000000000000000000000000000
:10010000000000000000000000000000F76A1C0F63
:10011000F66E010EF7220900F550120005010906DE
:10012000A1018502050719E029E7150025017501E0
:1001300095088102950175088101950575010508ED
:10014000190129059102950175039101950575081D
:10015000150025650507190029658100C000F76AAB
:100160006E0FF66E010EF7220900F5501200000026
:10017000F76A800FF66E010EF7220900F5501200A3
:1001800041000000F76A940FF66E010EF722090095
:10019000F550120009022900010100C032090400D3
:1001A00000020300000009210001000122410007B4
:1001B00005810308000A0705010308000A00F76A21
:1001C000CE0FF66E010EF7220900F5501200010065
:1001D000F76AE00FF66E010EF7220900F5501200E3
:1001E00012011001000000406104570000010102EB
:1001F0000001F76A020FF66E020EF7220900F550B1
:10020000120000040C00F76A160FF66E020EF722B9
:100210000900F550120004030904080352005200BB
:1002200032002E0355005300420020004B006500B1
:10023000790062006F0061007200640020006200BB
:10024000790020004700450053004800200031009D
:100250006D926994689439EF06F06A6A689242EF89
:1002600006F04E6A4E520AE1036A4E50240FE96EC0
:10027000000E0320EA6EEF6A4E2AF4D71A6A010EC6
:100280001B6E196A000C010E576E57500F080EE3D3
:10029000700E5724016E0F0E036ED8B0032A01C0F2
:1002A000E9FF03C0EAFFEF6A572AEFD71E6A1D6A0B
:1002B000000C400E0401016F050E036F026B880EE7
:1002C000006F046B050E076F400E066F0001000CF7
:1002D0006A6A686A9F0E6B6E390E696E6E6AC1DF5C
:1002E000D2DF160E706E68A602D06896FCD76D98A5
:1002F000E0DF030E1F6E48EF06F0698468986D8298
:100300004EEF06F0689C54EF06F070A002D0D1DFEB
:100310007090689A5AEF06F052C020F0000CFF0E61
:10032000206E000C506A23523EE050503F083BE3E1
:100330001C50FC0F2BE2040FDDEF01F0036A22508A
:10034000F2CF52F0F29E1EDF52BEF28E516E1ED0E0
:10035000036A2250F2CF52F0F29ED8DE52BEF28EE5
:10036000516E14D0036A2250F2CF52F0F29E4BDF4E
:1003700052BEF28E516E0AD0036A2250F2CF52F072
:10038000F29E26DF52BEF28E516E00D0222A230644
:100390005050502A036A400FE96E050E0320EA6EA2
:1003A00051C0EFFFC0D7235204E15050400801E094
:1003B000196A50C052F0B0DF000CE824D50FF66E79
:1003C000030EF76ED8B0F72A0A00F550FA6E08004F
:1003D000F550F96E3C03500364037803226A1C6AEB
:1003E00005010351010A000109E0030A0CE0010ABA
:1003F0000DE0220A22E0030A32E058D0120E236EEA
:10040000030E1C6E55D0290E236E52D0020E1C6EA8
:10041000036A05010251F2CF50F0F29E0001E9DEBD
:1004200050BEF28E226E036A2250F2CF50F0F29E3E
:10043000EADE50BEF28E236E3BD0120E226E223CBC
:1004400001D00BD0036A2250F2CF50F0F29E9ADE18
:1004500050BEF28E236E2CD002D061DF35D0D89002
:1004600005010435036AF2CF50F0F29E000177DEF9
:100470000900F5CF03F050BEF28E226E223C01D06F
:1004800013D0010E1C6ED89005010435036AF2CF1B
:1004900050F0F29E00016CDE0900F5CF03F050BE73
:1004A000F28E236E05D002D03ADF0ED038DF0CD0AA
:1004B0000501075305E12350065D02E206C523F05E
:1004C000010E196E00012EDF000C4F5204E1040EE4
:1004D0001F6ED9DEC1D0050E1F6E526E800E516E9A
:1004E000010E506E50500F08D8A0B6D0536A036A60
:1004F0005050F2CF57F0F29ED8DD57BEF28E000A70
:1005000051E0040E536ED8905034036AF2CF57F086
:10051000F29EDBDD0900F5CF03F057BEF28E546E7C
:1005200003C055F05050080DF350010F016E040E3A
:10053000036ED8B0032A01C0E9FF03C0EAFF54C02C
:10054000EFFF5050080DF350020F016E040E036EC2
:10055000D8B0032A01C0E9FF03C0EAFF52C0ECFF94
:10056000ED5251C0EFFFD8905034036AF2CF57F0EC
:10057000F29EABDD0900F5CF03F057BEF28E512697
:1005800003505222880E566E55B0568055B2568290
:100590005050080DF3CF01F0040E01C0E9FFEA6EE0
:1005A00056C0EFFF036A5050F2CF57F0F29E7DDD48
:1005B00057BEF28E000A31E053825050080DF350BE
:1005C000060F016E040E036ED8B0032A01C0E9FFC6
:1005D00003C0EAFF52C0ECFFED5251C0EFFFD890CC
:1005E0005034036AF2CF57F0F29E6FDD0900F5CF69
:1005F00003F057BEF28E5126035052225050080D80
:10060000F350040F016E040E036ED8B0032A01C02C
:10061000E9FF03C0EAFF400EEF6E5350060802E107
:100620000E0E536E036A5050F2CF57F0F29E3DDD2E
:1006300057BEF28E020801E05388700E5024016EFE
:100640000F0E036ED8B0032A01C0E9FF03C0EAFF12
:1006500053C0EFFF502A46D778EF03F00501015150
:1006600000010DE0010A14E0020A1EE0060A27E07C
:10067000030A2CE00E0A2CE0010A30E03DD01BC03A
:1006800040F50501416B020E526E000145DE36D089
:100690000501022D06D0010E1B16526A00013CDE38
:1006A00002D000013CDE2AD00501022D05D01B82BC
:1006B000526A000131DE02D0000131DE1FD0020E8D
:1006C000196E02C521F0526A27DE18D087DE16D0D7
:1006D0001AC040F5010E526E1FDE10D00501025106
:1006E000010808E302C51AF002C54FF00001EDD67B
:1006F000526A12DE000102D012DE00D0B2EF04F026
:100700001AC04FF005010151000107E00A0A0DE08F
:10071000010A2DE00D0A3DE03ED00501406B416B22
:10072000020E526E0001F8DD38D04F521EE0010E6D
:100730004F5C036AF2CF51F0F29E41DD51BEF28E62
:10074000016E0501045DD8A002D000010ED0036A3D
:100750000451240FE96E000E0320EA6EEFCF40F53E
:10076000010E526E0001D8DD01D0D9DD16D04F52F6
:100770000EE0036A05010451240FE96E000E032008
:10078000EA6E02C5EFFF526A0001C6DD01D0C7DD87
:1007900004D024DE02D0C3DD00D0B2EF04F04FAEAF
:1007A00050904FBE50804F9E50A010D0036A4F50C3
:1007B000F2CF51F0F29E79DC51BEF28E000A02E1D6
:1007C000000E01D0010E016E10D00FD0036A4F5001
:1007D000F2CF51F0F29E69DC51BEF28E000A02E1C6
:1007E000000E01D0010E016E00D06AEF04F04FAE92
:1007F00050904FBE50804F9E50A010D04F50080DCB
:10080000F350040F016E040E036ED8B0032A01C02A
:10081000E9FF03C0EAFF880EEF6E09D04F50080DC4
:10082000F3CF01F0040E01C0E9FFEA6EEF6A79EF41
:1008300004F04FAE50904FBE50804F9E50A010D04D
:100840004F50080DF350040F016E040E036ED8B024
:10085000032A01C0E9FF03C0EAFF840EEF6E0AD04D
:100860004F50080DF3CF01F0040E01C0E9FFEA6E0E
:10087000840EEF6E7FEF04F04FAE50904FBE50806D
:100880004F9E50A010D04F50080DF350040F016E32
:10089000040E036ED8B0032A01C0E9FF03C0EAFFCB
:1008A000EFCF51F00AD04F50080DF3CF01F0040EF6
:1008B00001C0E9FFEA6EEFCF51F051AE02D051B462
:1008C00002D0000E01D0010E016E89EF04F004C5C4
:1008D0004FF065D7015229E005010151010A0001DD
:1008E00005E0020A09E0030A0DE01DD004C54FF03F
:1008F0007ED7526A11DD19D004C54FF09AD7526ADB
:100900000BDD13D00501406B416B04C54FF00001B6
:10091000B3D7015204E0010E0501406F0001020E41
:10092000526EFADC02D0FBDC00D0B2EF04F005011D
:10093000015100D00001F3DC00D0B2EF04F0196ADD
:10094000050100517F0B000107E0010A06E0030AE0
:1009500005E0230A04E004D081D6D2D6B8D7E7D781
:10096000DEDC00D0D9EF05F04F50080DF3CF01F0D9
:10097000040E01C0E9FFEA6EEFCF51F050500208BB
:1009800006E151AC02D0506A02D0010E506E5050B8
:10099000030812E1840E516E4F50080DF350040FFE
:1009A000016E040E036ED8B0032A01C0E9FF03C034
:1009B000EAFF840EEF6E09D0502C03D0C80E516EA2
:1009C00004D0505202E1880E516E036A010E026E8D
:1009D0004F50006E05E0D89002360336002EFBD74C
:1009E0000250FF0A006EFF0E031A00501D1603503E
:1009F0001E16D8904F34036AF2CF54F0F29E65EC85
:100A000000F00900F5CF03F054BEF28E526E03C021
:100A100053F04F50080DF350010F016E040E036E9A
:100A2000D8B0032A01C0E9FF03C0EAFF52C0EFFFBC
:100A300053B0518053B251824F50080DF3CF01F0A3
:100A4000040E01C0E9FFEA6E51C0EFFF000C4F50E9
:100A5000080DF350040F016E040E036ED8B0032A84
:100A600001C0E9FF03C0EAFFEFCF53F053BE5BD0F4
:100A70004F50080DF350050F016E040E036ED8B0F1
:100A8000032A01C0E9FF03C0EAFF50C0EFFF525044
:100A9000020816E14F50080DF350040F016E040ECA
:100AA000036ED8B0032A01C0E9FF03C0EAFFEFCF0D
:100AB00053F053AC02D0526A02D0010E526E13D0E2
:100AC0005250040810E14F50080DF3CF01F0040E0E
:100AD00001C0E9FFEA6EEFCF53F053AC03D0010E33
:100AE000526E01D0526A522C03D0C80E536E04D0FD
:100AF000525202E1880E536E51B0538051B253826C
:100B00004F50080DF350040F016E040E036ED8B061
:100B1000032A01C0E9FF03C0EAFF53C0EFFF010E43
:100B2000016E03D000D0000E016E000C4F5203E1A5
:100B300059EC01F00FD0036A010E026E4F50006EA7
:100B400005E0D89002360336002EFBD702501D1266
:100B500003501E12000C50C06EFF505203E0040EF2
:100B60001F6E02D0020E1F6EBBEF05F01A6A196AE3
:100B700021C050F0F0D7C8EF05F04F5209E1192C11
:100B800003D092EC01F004D01950020801E1EED735
:100B9000000C6C304E6E4E324E321F0E4E166C52A2
:100BA0003BE1040100513C0B34081BE1046B0001E4
:100BB000C6D6203C05D04F6A030E506ED5DE0ED04F
:100BC0004F6A020E506ED0DE2050FE0807E04F6ADA
:100BD000516A20C050F0040E526E39DF6D9819D062
:100BE000040100513C0B040815E14F6A00019EDF2F
:100BF0004F6A020E506EB8DE2050FE080AE0203C1C
:100C000001D007D04F6A516A20C050F0010E526ED9
:100C10001EDF040120D000016C50040812E1FF0E19
:100C2000206E4F6AAADF203C01D008D04F6A516A7B
:100C300020C050F0020E526E0ADF02D059EC01F0D3
:100C400009D06CB404D04EC04FF070DF03D04EC05A
:100C50004FF093DF040100015FEF06F01F5201E146
:100C60002FD068522DE068A404D069A402D028EFE8
:100C700001F06DA201D024D068A204D069A202D0F4
:100C80002DEF01F068A004D069A002D068EF01F058
:100C900068A804D069A802D07DEF01F068AC04D048
:100CA00069AC02D082EF01F068AA04D069AA02D030
:100CB00085EF01F068A604D069A602D06AD76896CD
:100CC000A19A32EF00F038B003D0388096928D822E
:100CD000F29232EF00F0EA6A3C0EE96EEF500EE05D
:100CE0000F0E016E006A002EFED7012EFBD78F0E6D
:100CF000006E002EFED70000EF2EF2D7000C6D6ABA
:100D0000696A080E6F6E94503009946E1F6A186AF3
:100D1000F2BE188EF29E31EC01F018BEF28E1E6A01
:100D20001D6A46EF08F0186AF2BE188EF29E31EC8A
:100D300001F018BEF28E6D6A140E6F6E696A6D86D0
:100D4000010E1F6EA7EF06F06DB601D0ECD71F2C79
:100D50000BD06DBA09D0686A696AA08AC00EF21217
:100D6000110E696E020E1F6E4FEF08F01AC026F0CA
:100D7000265205E096908D8096948D9404D096949A
:100D80008D8496908D9050EF08F03C50400803E21F
:100D90003C505A0806E23C50600808E23C507A0891
:100DA00005E3610E3C5C040F3D6E0AD03C503008F8
:100DB00003E1270E3D6E04D0310E3C5C1E0F3D6EEC
:100DC0003DC001F068EF07F03C50080DF350040FF0
:100DD000016E040E036ED8B0032A01C0E9FF03C000
:100DE000EAFFEFCF44F044BE45D03C50080DF3502D
:100DF000060F016E040E036ED8B0032A01C0E9FF8E
:100E000003C0EAFFECCF03F0ED52EFCF45F003C093
:100E100046F0436A426A4350405C1AE303E13F50A4
:100E2000425C16E23DC0E9FF3EC0EAFFEFCF49F069
:100E300046C0EAFF45C0E9FF49C0EFFF452AD8B4E4
:100E4000462A3D2AD8B43E2A422AD8B4432AE3D7B8
:100E5000186AF2BE188EF29E3CC04FF040C051F0AE
:100E60003FC050F041C052F0F2DD18BEF28E01508A
:100E700003D000D0000E016E000CFF0E936E81CFE8
:100E80003BF03B5238E03B50010A0BE0030A0CE018
:100E9000010A0DE0070A0EE00C0A0FE0180A10E044
:100EA00012D0770E376E11D0730E376E0ED0610EE2
:100EB000376E0BD0310E376E08D0320E376E05D03C
:100EC000720E376E02D0300E376E37C03CF05DD7F1
:100ED00001C032F0010E3C6E3E6A2F0E3D6E406A3C
:100EE000080E3F6E020E416E6FDF96928D92050ED8
:100EF0003C6EF1DE0FD0326A010E3C6E3E6A2F0E60
:100F00003D6E406A080E3F6E020E416E5DDF050EBB
:100F10003C6EE1DE53EF08F04050080DF350020F35
:100F2000016E040E036ED8B0032A01C0E9FF03C0AE
:100F3000EAFFECCF03F0ED52EFCF45F003C046F0EF
:100F40004050080DF350010F016E040E036ED8B02F
:100F5000032A01C0E9FF03C0EAFFEF50036A486EAD
:100F600003C049F04050080DF3CF01F0040E01C05A
:100F7000E9FFEA6EEFCF47F047B0498047B24982B8
:100F80004950445C08E303E14350485C04E249C033
:100F900044F048C043F0496A486A4950445C1AE347
:100FA00003E14350485C16E245C0E9FF46C0EAFF52
:100FB000EFCF4CF042C0EAFF41C0E9FF4CC0EFFF69
:100FC000412AD8B4422A452AD8B4462A482AD8B455
:100FD000492AE3D743C001F044C002F0FBEF07F019
:100FE0003BC040F03DC042F03CC041F03FC044F047
:100FF0003EC043F091D702C03FF001C03EF0186AF6
:10100000F2BE188EF29E3BC04FF0020E506EACDC6A
:1010100018BEF28E3EC001F03FC002F01BEF08F098
:101020001DA209D0010E3B6E3D6A270E3C6E3F6A41
:10103000080E3E6ED5D754EF08F0F86AD09E0D8E9C
:10104000EA6AE96AC150C00B0F09C16E070EB46E9F
:101050001F6A236A020E2F6E306A316A326A336A5F
:10106000346A356A366A300E376E38903A6A38809C
:10107000020E3B6EFA0E3C6E2EDE3B2EFBD7969098
:101080008D9096928D9296948D9439D61F0E936E74
:101090008A9E939E8A9C939C8A9A939A55D666D6EA
:1010A0001A5205E0EAD6BCD7050E3C6E14DEF6D720
:0210B00003003B
:020000040030CA
:0E000000240E3E1E008381000FC00FE00F4053
:00000001FF
;PIC18F4550
